:10800000D8910020C9870000EFC20000B5870000AA
:10801000B5870000B5870000B5870000B587000070
:108020000000000000000000000000003589000092
:10803000B587000000000000C5880000B58700007B
:10804000958A0000958A0000958A0000958A0000B4
:10805000958A0000958A0000958A0000958A0000A4
:10806000958A0000958A0000958A0000958A000094
:10807000958A0000958A0000958A0000958A000084
:10808000958A0000958A0000958A0000958A000074
:10809000958A0000958A0000958A0000958A000064
:1080A000958A0000958A0000958A0000958A000054
:1080B000958A0000958A0000958A0000958A000044
:1080C000958A0000958A0000958A0000958A000034
:1080D000958A0000958A0000958A0000958A000024
:1080E000958A0000958A0000958A0000958A000014
:1080F000958A0000958A0000958A0000958A000004
:10810000958A0000958A0000958A0000958A0000F3
:10811000958A0000958A0000958A0000958A0000E3
:10812000958A0000958A0000958A0000958A0000D3
:10813000958A0000958A0000958A0000958A0000C3
:10814000958A0000958A0000958A0000958A0000B3
:04815000958A00000C
:108154000248402183685B69184700BF18CC0000BF
:1081640070B51E4C204604F08CFB002833D020460A
:1081740004F087FB78B34FF4D011194803F0C5FE1F
:10818400002828DB4FF48031164803F0BEFE002897
:1081940021DBA568AE696EB123694FF0A0721B683C
:1081A400082113F4807F14BF4FF000734FF08063F5
:1081B4002046B0470C490D4B4B604FF480738B60E5
:1081C400EB6913B101220548984700214FF09670DE
:1081D40004F00DFCF9E74FF0FF3070BD18CC00003F
:1081E400D8CE0000E0CE0000988200205581000027
:1081F400014B1B68184700BF00800020014B18602A
:10820400704700BF0080002030B585B004460D469D
:1082140010220021684604F04EFC02238DF802303F
:10822400044B2A4621466846019303F013FC05B02B
:1082340030BD00BFF581000080B505460E461746E7
:10824400984603F0BDF9034604F0A0FC0446DFF8A9
:108254001890424649F8003039463046A84754F849
:10826400090000F017FB00BF080000002DE9F047EB
:10827400058B04462807904611D4022905F007050A
:1082840040F0CC80204603F04EFF78B10138218BBA
:10829400042811D8DFE800F0C2106D85950001298B
:1082A4000CBF45F0100545F02005258388F311889F
:1082B400BFF36F8FBDE8F08701F0070AAA4500F00D
:1082C400A5800027B9463E46A368002B00F0BC8079
:1082D40041F00801218388F31188BFF36F8FA168EF
:1082E400002900F0BA800D68002900F0B6803346FA
:1082F40052462046D1F80480C047002D76D02B6822
:1083040029461D46F0E701F007035A1F012A1BD82E
:10831400002221F00701062B276889B2C4E9002254
:1083240009D13B4603E0628B013262831B68002B58
:10833400F9D141F002012046218303F0F4FE002824
:108344007AD041F0200176E0042B0AD121F0070114
:1083540089B22046218303F0E6FE10B141F02001EA
:108364002183218B01F0070AAA454FD00027B94683
:10837400AAE7236921F0070141F00601062DD3F88D
:10838400009021832DD1B9F1000F3FD041F00801B5
:10839400218388F31188BFF36F8F20463949C8477A
:1083A40029E021F00701236941F0040189B2042D79
:1083B400D3F804902183E6D000274FF0040A3E4608
:1083C40082E721F00701236941F0050189B2052DF7
:1083D400D3F808902183D6D000274FF0050A3E46F3
:1083E40072E700274FF0060A3E466DE72B4687E703
:1083F400B9F1000FD1D1EFF31188202383F3128850
:10840400BFF36F8F238B23F008032383258BEA06A6
:108414002ED525F01003238305F007056669218B0B
:10842400002EBFF670AF00232768C4E9003321F0A3
:10843400070141F001012183218B4FF0000901F074
:10844400070AAA457FF440AF002F9CD041F00801F1
:10845400218388F31188BFF36F8F002FC8D03D6844
:10846400394633465246204603F089FE2F46F4E748
:10847400AB067FF51BAF25F02003238305F007052A
:1084840000E700BFAFC10000014B0360002070474C
:10849400E8CE000008B5044803F038FEBDE8084003
:1084A400024803F033BE00BFF4CF000029D000001F
:1084B40030BFFFF7FDBF00BF2DE9F04105460B4E6D
:1084C400DFF82C80324606EB0807CC1B204609490E
:1084D40004F0E4FAA01942460021083C04F0EBFA47
:1084E4002C6707F10800BDE8F08100BF0000000020
:1084F40004000000C8CE0000074A936893F90E10E8
:10850400002907DB526993421FBF044A536843F0B2
:1085140080535360704700BF6084002000ED00E08A
:10852400154B9A6A12F0007F9A6A14BF1E201D2010
:1085340012F0807F9A6A18BF1F2012F4801F9A6A73
:1085440018BF022012F4002F9A6A18BF212012F4D7
:10855400802F9A6A18BF222012F4003F9A6A18BF2B
:10856400232012F4803F9A6A18BF24206FEA024243
:108574006FEA12429A62704700ED00E010B5194BA1
:108584000246986A9C6A10F4805F14BF1720162074
:1085940014F4006F9C6A18BF1820A40509D5986BC1
:1085A400986A000404D51AB19A6A22F400429A62C5
:1085B40019200C4B9A6A12F4806F9A6A18BF1A2019
:1085C400D2050CD49B6A13F4005F18BF1C20054A23
:1085D400936A43F47F43936200230B7010BD1B2006
:1085E400F5E700BF00ED00E010B51C4B0246986AA9
:1085F4009C6A10F0100F14BF1120102014F0080F03
:108604009C6A18BF1220A40709D5586B986A000603
:1086140004D51AB19A6A22F080029A6213200F4B91
:108624009A6A12F0010F9A6A18BF142012F0200FF0
:108634009A6A18BF1520D40658BF9B6A074B9A6ADA
:10864400920642BF5A6A22F400525A629A6A42F06F
:10865400FF029A6200230B7010BD00BF00ED00E022
:10866400F0B54A4B04465B6800258BB0C3F308039E
:1086740085F31188BFF36F8F02F07F40B0F17F4F15
:1086840016D1D60714D4550603D4100704D40125F3
:1086940004E012F0040200D00C4600250022033B43
:1086A4008DF80720032B05D8DFE803F02462665F0A
:1086B4002C46F3E700239DF80720CAB902AE04F163
:1086C4002007324620686168083403C2BC4216465B
:1086D400F7D1099A002D53D0C2F3080121B96FEAEA
:1086E40052226FEA42220992184602A903F0F3FDCE
:1086F4000BB0F0BD254BDA6A9107DBD4DA6A002AA5
:10870400D8DBDA6A5200D5D55A69A16942F480727D
:108714005A61BFF34F8FBFF36F8F5A6931F8021C50
:1087240022F480725A61BFF34F8FBFF36F8F4DF6FF
:108734000272914201D12368BDE79A6AD2B232B182
:1087440001200DF10701FFF74FFF0346B3E79A6AD3
:1087540012F47F4F05D001200DF10701FFF70EFF42
:10876400F3E79B6AB3F5803FA4D3FFF7D9FEECE7A8
:1087740000200DF10701E6E700200DF10701EDE708
:1087840022F4FF7222F00102ADE700BF00ED00E029
:10879400064B5A6942F010025A615A6942F48062E7
:1087A4005A615A6922F008025A61704700ED00E0EC
:1087B400EFF30880EFF3098101B57246FFF750FF2C
:1087C40001BD00BF002080F31488BFF36F8F002029
:1087D40080F30A8880F30B880F4880F3088803F03D
:1087E400B4FF00200D490860BFF34F8F00F02CF850
:1087F400202080F311880A484FF40061401880F368
:108804000988EFF314800221084380F31488BFF32E
:108814006F8F00F0D1F80000D891002094ED00E0B3
:1088240098840020002318460649D1F89020C2F30A
:108834000722934200DB7047C1F89830C1F8A000CA
:108844000133F6E700ED00E010B572B6002484F3BE
:108854001388FFF7E7FF23464FF0FF300C4A03F17C
:1088640020010133102B42F82100F8D100234FF0EE
:10887400FF30074A03F160010133102B42F8210055
:10888400F8D162B6BFF34F8FBFF36F8F10BD00BF37
:1088940000E100E0084B9B6883420BD1EFF30583B2
:1088A40043B1064B5A6842F080525A605A6A22F425
:1088B40000425A6202F08ABE6084002000ED00E0AB
:1088C40018498A6882F87DE04FF030001044EFF3D5
:1088D400098C80E8F01F202080F31288BFF36F8F8B
:1088E400114F4FF000664A698A603E604FF0700491
:1088F400141920680D4C206092F97DE0506F00231C
:10890400536780F3118802F1300090E8F01F8CF374
:10891400098802F1000004B503F0F4FCBDE804404A
:10892400704700006084002004ED00E0A482002071
:108934001EF0040F0CBFEFF30880EFF30980816988
:1089440011F8021C0229FFD001B5724603F0C9FCDC
:1089540001BD00BF40B2002807DB01234109034ADF
:1089640000F01F00834042F82130704700E100E02E
:10897400054B420953F82220012300F01F0003FA9B
:1089840000F01040704700BF00E100E040B2002852
:1089940001F10101ACBF00F16040064B4FEA411107
:1089A400C9B2ABBF00F5614000F00F0080F80013BE
:1089B4001954704714ED00E00B4A08B50B4B22F034
:1089C4007F029A60BFF34F8FBFF36F8FD3F8882075
:1089D40022F47002C3F8882002F078F902F004FF50
:1089E40000F04AF802F0B2F90080000000ED00E067
:1089F40042F8203C009B0C4942F81C3C019B21F0AE
:108A0400010142F8183C029B42F8081C42F8143C4D
:108A14004FF0807342F8043C002343674FF43C4317
:108A2400203A0265C36770473D82000000B50B4BD6
:108A340015469860026F0A4B0E461A60036E83F364
:108A44000B882C4686F309880020064B984720465D
:108A5400002100220023044C204700BF6084002032
:108A6400A482002011C300003D8200001022014BAB
:108A74001A61704700ED00E0002320210348C2186A
:108A84000133452B82F80013F9D1704700E100E06F
:108A940008B5EFF30583064A103B02EBC30152F815
:108AA400330049688847BDE80840FFF725BD00BF8B
:108AB40054CC00001FB5094C094A2346012109483A
:108AC40000F0FAF800230393074B0121E41A01A8EC
:108AD4000193029400F0FAF804B010BD00000720DE
:108AE40000800020E8CE0000D880002010B50C7A69
:108AF4000B6804F01F0223F01F031A43CB686409B8
:108B040023F01F03054943EA440343F00103C1F87A
:108B14009800C1F89C20C1F8A03010BD00ED00E021
:108B240010B5074BD3F89030C3F30723013B9842A9
:108B340002D8FFF7DBFF10BD6FF01500FBE700BFA5
:108B440000ED00E02DE9F04F0F46144606464FF0C5
:108B540000084D4D85B0B84580F29280D6F8049057
:108B6400B9F1000F36D0B9F11F0F40F2878019F028
:108B74001F0F40F08380D6F800A01AF01F0F7DD19C
:108B8400504603F0FFFB834609EB0A00013803F06B
:108B9400F9FB834572D11BF1160F6FD05C456DDD77
:108BA400C5F898B0D5F89C10C5F898B0D5F8A030A1
:108BB40021F01F0143F01F0AD6E900321A449942FA
:108BC40002F1FF391ED1CA4508D131465FFA8BF054
:108BD40003F0E1FB08F101080C36BCE73146C5F8A7
:108BE40098B0D5F89C3022F01F0203F01F03134302
:108BF400C5F89C30E0B203F0CEFB10F1160F3DD067
:108C0400441CE7E7C5F898B0D5F8A020013B23F051
:108C14001F0302F01F021343CA453146E0B2C5F8F0
:108C2400A030E8D003F0B7FB10F1160F26D0C5F83A
:108C340098B0D5F89C209DF808300AF1FF3A62F309
:108C440004038DF80830D5F8A0309DF808205B089F
:108C540063F347128DF80820D6E9003213440093D9
:108C640023F01F035344A3EB0903013023F01F0334
:108C74006946C0B20393FFF753FFBEE76FF01504D4
:108C8400204605B0BDE8F08F00ED00E00522044B5E
:108C9400C3F89420BFF34F8FBFF36F8F704700BFAB
:108CA40000ED00E0BFF35F8F0022024BC3F8942075
:108CB400704700BF00ED00E010B5034C2278FFF7C9
:108CC40041FF207010BD00BF908400202DE9F74FB4
:108CD400294D8A4606464FF00008AB46274FD0453B
:108CE4001BDAD6F80490B9F1000F3FD0316808467A
:108CF400019103F047FB0199044609EB0100013897
:108D040003F040FB84424FF014021D4B08D002FBD9
:108D140008F36FF015024BF8032003B0BDE8F08FA1
:108D240014F1160F2C60F8D01978A142F5DD02FB7E
:108D340008B0C7F89840C7F89840D7F89C4000F1AD
:108D44000801007B64F304000871D7F8A0000C79D3
:108D5400400860F347140C71D7F89C1021F01F01F0
:108D64006960D7F8A01021F01F01296108F10108FA
:108D740014350C36B3E700BFA882002000ED00E0F4
:108D840090840020F0B54149414CD1F890302568D9
:108D9400C3F307239D4287B075D80020FFF782FFF5
:108DA4003C4BC1F8C030854216D13B4C01A825701C
:108DB400FFF76AFB00250646384FAE4213D1002068
:108DC40023783249D1F89020C2F30722934254DB2E
:108DD400FFF75CFF00202FE0616801EB0011FFF753
:108DE40085FE0130DFE70199280101EB0513DA68FC
:108DF4003A40B2F5001F21D0B2F5800F2BD0B2F566
:108E0400801F38D15A689B680958013B22F01F0023
:108E140003440120844623F01F0340EA4C10CDE9AB
:108E240002218DF8100002A920780593FFF778FE3F
:108E340000281DDA6FF0150007B0F0BD5A689B6872
:108E44000958013B22F01F0003444FF0020C01209B
:108E540023F01F03E1E75A689B680958013B22F09D
:108E64001F0003444FF0000C062023F01F03D4E737
:108E740023780133237001359FE7C1F89830C1F896
:108E8400A00001339EE74FF0FF30D5E700ED00E08E
:108E9400F4CE0000AAFF4400908400200000F0FFFC
:108EA40008B5024B1B689847002008BDBC8200200F
:108EB400034B044A1860937843F00203937070479D
:108EC400BC8200200480002008B50649064821F031
:108ED4000701C1F1005202F5E02203F0BDF80020C1
:108EE40008BD00BFDF910020C082002007B50DF14E
:108EF400070001F00FF9114B98421CD14FF4806226
:108F04000F4B1049C3F8B8254FF40062C3F83C2551
:108F14009DF8070003F022FC0B499DF8070003F0BD
:108F240018FC01209DF80730984001F0EDF800206E
:108F340003B05DF804FB6FF00B00F9E70000AD0B24
:108F440000A002402CA0024028A10240052370B5D5
:108F5400144D154E2C780134B4FBF3F303EB830367
:108F6400E41A03F09BFB114A137823B156F824301A
:108F7400C01A072813D90E4BD3F8141141B100219C
:108F8400C3F81411D3F814312C700CB901231370E5
:108F94002C7803F083FB46F82400012070BD0020E8
:108FA400FCE700BF92840020CC8200209184002042
:108FB4000050004048B1054B054A1B68B3FBF2F36F
:108FC4005843044B43F001031847704714800020B2
:108FD40040420F00D0CE00000B460121024AC2F8E5
:108FE40014160021184700BF0050004001490248F0
:108FF40003F0E8B81CCF0000E08200202DE9F04720
:10900400174B0546D3F830210C46072AD3F83431E0
:1090140021D1023B032B02D8124AD35CDBB14FF0BF
:10902400010800264FF050290F4F0520C9F8188673
:10903400C7F8146603F08BFB4046C7F8148603F0A8
:1090440086FBC7F81466C9F8186628462346BDE8A7
:10905400F047002118470022034BC3F81426F4E715
:1090640000F0072066D0000000500040084B70B5A7
:10907400C31A0D4607499B1004465943402206482B
:1090840003F0D6F92B4601462046BDE87040184748
:1090940010830020B76DDBB604CC0000402373B509
:1090A4000B4C0093041B0B460D460A49A410614364
:1090B4000646094A094803F0E7F9011E05DA304675
:1090C4002B4602B0BDE87040184702B070BD00BF27
:1090D40010830020B76DDBB6F7C4000004CC000099
:1090E40010B5EFF31184202383F31288BFF36F8F3D
:1090F400074A136823F00201DB07116002D4012040
:1091040003F038FB84F31188BFF36F8F10BD00BFE9
:10911400B08300202DE9F8430022012106460520F2
:10912400FFF734FC114801F079F8114B984219D13A
:1091340001F084F800244FF01C090C27DFF8348078
:109144003569414609FB045003F03CF8002807DB6D
:10915400012307FB04551C44042CAB67F0D1002009
:10916400BDE8F8836FF00400FAE700BF79920000CD
:109174000000AD0B28CF00001FB500220123CDE96C
:1091840002236B46084ACDF800D0CDF804D003F092
:10919400A9F9002805DB4FF480420023684601F05A
:1091A4003FFF05B05DF804FB2DC500000C22104BF9
:1091B400014602FB0033002030B4D3E91C52186787
:1091C400EFF31180202484F31288BFF36F8F9C6F18
:1091D40004F0C00444F002049C6780F31188BFF3D8
:1091E4006F8F1DB12B4630BC0248184730BC704706
:1091F4001083002004CC000010B4EFF3118220236C
:1092040083F31288BFF36F8F1748016841F002049B
:109214000460C80707D482F31188BFF36F8F01205D
:1092240010BC01F023B81149D1F80C04D1F80C1486
:10923400C907F0D5EFF3118083F31288BFF36F8F62
:109244000B498B6F03F0C00343F002038B6780F379
:109254001188BFF36F8F82F31188BFF36F8F0020E3
:1092640010BCFFF7A3BF00BFB08300200050004034
:1092740010830020092813D8DFE800F0051012122B
:10928400121212120E0C074B986F10F0070007D140
:10929400FFF78CBF0220FBE70320F9E70120F7E783
:1092A400704700BF108300202DE9F04101220746DA
:1092B4003449D1E8EF3FC1E8E02F0028F9D133B9B0
:1092C400314932484B60CB608A6002F08EFF7B1ECE
:1092D400012B28D8012F06D12D4BD3F81C3403F0D1
:1092E4000303022B1FD003F012FB0546E8B9294BF8
:1092F4001B78D3B102220646254BC3F80823244C1D
:10930400DFF89480D4F81824D4F81834D20315D58F
:1093140003F00303022B01D0012F0FD16DB386F3A9
:109324001188BFF36F8FBDE8F081EFF3118620231E
:1093340083F31288BFF36F8F0125E0E7C5B1304690
:1093440003F004F8D4F81835DBB2012BDAD1D4F8E1
:109354000421002AD6D00022C4F80421D4F8042120
:109364000222C4F818252022C8F88021A360C9E786
:109374000021212003F03BFBE4E70222044BC3F865
:109384000423D0E70C830020FC8200202C830020DF
:10939400005000409584002000E100E008B5074833
:1093A40003F06FFA38B10648FFF782FD0448FEF770
:1093B40025FF002008BD6FF01200FBE740CC000041
:1093C400C99300000A2838B50446074D04D1AB6898
:1093D4000D2128465B689847AB6803485B68E1B297
:1093E4009847204638BD00BF40CC0000F0B5406827
:1093F40001F01F04057B87B044EA45140569002D7C
:1094040063D0B2F5001F00F1100506D121462846AD
:1094140003F030FA002007B0F0BD0027B2F5800F4A
:1094240001AE0197776039D1B3F1007F14BF0523F2
:1094340004238DF804300023CDE904630393836887
:1094440023FA01F111F001011AD1B2F1A07F17D171
:1094540004F01F03620903F180032AD0012A3AD1E0
:109464001E4A52F82330DB070AD40DF103063246B4
:109474002146284601F006FA194B98421BD0029661
:109484002146284603AA01F0B9F8164B98421FD189
:1094940001222146284601F057FABBE7B3F1C06F19
:1094A40005D0B3F1007F14BF01230223C1E70323D6
:1094B400BFE70D4AD5E73146284601F03FFA094B8C
:1094C4009842DCD06FF00B00A5E76FF08500A2E7AF
:1094D4006FF015009FE751F82330FFDE0028844029
:1094E4000400AD0B0000AD0B0025844038B5456881
:1094F4002B69B3B11035284601F010FA044680B93F
:109504000146284601F0D8F9084B98420BD122466F
:109514002846074901F0B0F9224605212F20FFF71C
:1095240035FA002038BD6FF00400FBE70000AD0BF6
:10953400399500004209034670B502D0012A17D0BC
:1095440070BD0D4E326951680029F9D0012503F030
:109554001F030C689D400029F2D08A682A4002D07B
:1095640030464B6898472CB1236821461C46F2E7E5
:10957400024EE7E72346F8E72CCC000018CC0000A5
:109584002DE9F04340F206354668D00648BF032073
:10959400337B02EA050558BFC2F3401087B001F0DF
:1095A4001F07B5F5837F144647EA43178DF8030078
:1095B40044D00FD8062D18D007D8B5B1022D3FD00E
:1095C4006FF0150007B0BDE8F083B5F5807FF7D1E3
:1095D40001250AE040F20222954233D0B5F5407FDE
:1095E40032D0B5F5007FEBD102250123220303FA23
:1095F40001F12BD573689960326972BB07F01F03C0
:109604007F0928D0012F75D13C4A02EB830284F4F0
:109614008033D2F80012C3F30043C4F3404444EA55
:10962400430421F4706144EA800421F00F0144EA08
:1096340005230B43C2F800320020C3E70725D4E713
:109644000425D2E70525D0E70325CEE7630344BF0D
:109654007368D960D0E72A4AD7E7103639463046CE
:109664000DF1020201F00EF914F4403F80460CD1D2
:109674003946304603F0FCF8224B9845DCD130469D
:109684009DF8021001F054F9D6E74FF0000901AB40
:109694003946304603AACDE90439CDE90199CDF81C
:1096A4000C9000F0ABFF174B984289D114F40033AF
:1096B40015D09DF8033084F48034C4F300448DF84D
:1096C4000E3039464B46304603AA8DF80C508DF8BF
:1096D4000D4001F04FF80B4B9842CDD070E7CDE927
:1096E400043339460DF10303304603AA039300F013
:1096F40085FFF0E7803352F82330FFDE00288440F2
:10970400002584400000AD0B036803F01F025B09D1
:10971400026004D0012B034818BF002070470248A0
:10972400704700BF00288440002584402DE9F04F95
:109734001546834640F2FF18DFF88891DFF888A1C8
:1097440085B000EB8101594503D1002005B0BDE887
:10975400F08FDBF80030C3F3C322082AC3F30804F4
:1097640000F2AA801B0E444508BF4FF0FF3419F8DD
:109774000270222B00F2A380DFE803F012191F22EB
:10978400252B22A1A1A1A13A67A1A1A1A1A1A1A1D7
:10979400A1A16A7F8285A1A1A1888F9295989B003F
:1097A400C5F80C45601C5DD10BF1040BCBE7C5F883
:1097B4001445621CF8D000265DE0C5F80845F1E7C1
:1097C400C5F81045F5E7631CC5F80845ECD000263C
:1097D40004E0661CC5F80C45E6D0012603A80394F2
:1097E400FFF792FF0122039B02FA03F3C36008E030
:1097F400C5F80845002FDCD1631CD5D00026062708
:109804003246DBF80030039403F40040002818BF0C
:10981400002203A818BF012601930092FFF774FFEA
:10982400039C019B00EB8400D0F80042C3F3412C5D
:10983400009A3B0243EA8C03134304EA0A042343D9
:1098440043EA4603C0F80032AEE7C5F80C45D1E759
:10985400C5F86045601CDBF80030A5D0C3F30043B5
:10986400002BBAD0012603A80394FFF74DFF039BF6
:1098740006FA03F383603246C3E7C5F86445E9E7B3
:10988400C5F86845E6E7C5F86C45E3E7C5F824453F
:10989400621C89D001260022B3E7C5F8284581E778
:1098A400C5F83045F4E7C5F83445F1E7C5F838455F
:1098B400EEE7C5F83C4575E76FF0150046E76FF035
:1098C400850043E78DD00000F0F0FCFF2DE9F04166
:1098D40004460D46476803F01AF84FF0200888B98B
:1098E400264B1B7873B16426606802F09AFEF0B9C7
:1098F400012002F02CFF013EF6D10021212003F0CB
:1099040076F8F0E7EFF31186314688F31288BFF357
:109914006F8F606802F085FEA8B986F31188BFF3E3
:109924006F8FEFE786F31188BFF36F8FE5E7EFF3EF
:109934001186314688F31288BFF36F8F606802F096
:1099440070FE0028EED0FB6900201D706368FA6980
:109954001B68C3F844250122C3F84825C3F8200135
:10996400D3F82041C3F85801D3F858019A6081F321
:109974001188BFF36F8FBDE8F08100BF958400208C
:10998400F7B50546002201210820FEF7FFFF082055
:10999400FEF7E0FF6B681A691868C0F82425997D02
:1099A4005A7D0A43198B1B7D0B431343C0F86C3556
:1099B4006E68D6E9004313F0010348D02F6907F11C
:1099C400080000F0A7FB304B98425AD1387A04F1D2
:1099D4000C0204F5907102F0C6FE387A012707FAEA
:1099E40000F000F091FB0823C4F80035F369C4F8D3
:1099F40044350023C4F84835A760D4F85831002B07
:109A0400FBD00021C4F800156B6801AADC6820466D
:109A140002F0DAFD002805DB019B22681979186839
:109A2400FFF784FE08216A681368C3F80015117AE9
:109A340051B9126AC3F834250122C3F83825C3F892
:109A44001011D3F810111A60002003B0F0BD0822E1
:109A5400C4F80025F269C4F84425C4F84835012344
:109A6400A360D4F82031002BFBD00023C4F82031AC
:109A7400D4F820310123E3604FF48073C4F8043335
:109A8400BBE76FF00400E0E70000AD0B0123834067
:109A940070B5DC430B4AD2E8EF1F01EA0405C2E8C3
:109AA400E65F002EF7D14FF4803282400648C0F8BA
:109AB4000823BFF35F8FBFF36F8F0B4214BF0120E6
:109AC400002070BDDC8300200050014070B40E49BA
:109AD40022F07F46D1E90034D01AC31844F10004BF
:109AE400C1E90034A6F50013B3F5400F09D2074BC2
:109AF4001B681A0A1B069C19054B42F10005C3E9B1
:109B0400004570BC01F030BFE8800020E0830020F5
:109B1400F0800020D9B101230D4A8340D2E8EFCF71
:109B24004CEA030CC2E8E1CF0029F7D14FF48033AB
:109B3400084A8340C2F80433074BD3E8AF3FC3401D
:109B4400DB0742BF4FF40012044BC3F800217047F7
:109B5400DC83002000500140D883002000E100E0B5
:109B64000D4B1868010A0006BFF35F8F0B4BD3F847
:109B74000435181841F10001B3F5801F0AD2084BCF
:109B8400D3E90023904271EB030303D210F18070F8
:109B940041F10001704700BFE08300200050014004
:109BA400F08000202DE9F04F85B016461F4604468C
:109BB4009DF840A0FFF76AFF0190FFF7D1FFB04284
:109BC40071EB070352D23B4B301A67EB0101984209
:109BD40071F100014DD2384B03EB0413D3E9022396
:109BE4009F4208BF964258D04FF48038334908FA50
:109BF40004F8204626F07F4BC1F8488302F042FD6A
:109C04004FF00309584604F15005AD00ADB205F11B
:109C1400804504F5A87305F5A8350293029A20F04F
:109C24007F4341F82230C1F84483D1F80435244AF3
:109C3400C01A033820F07F4090422ED9286868B1BA
:109C4400D1F80435A3EB0B0020F07F40B0F5000FF2
:109C5400039322D9204602F015FD039BBAF1000FAD
:109C640007D109EB030009F10109D7E7BAF1000FA5
:109C740009D06FF0150520460199FFF74BFF2846E0
:109C840005B0BDE8F08F01230E4AA340D2E8EF0FE0
:109C94001843C2E8E10F0029F8D107490E982301BF
:109CA400C8500F9B01EB04120025C2E90267536000
:109CB400E1E700BF01008000D8800020005001408F
:109CC400FDFF7F00D88300207FB500254FF0FF30D3
:109CD4004FF0FF31194C1A4B0226C4F80833C4F86C
:109CE4004833184BC4F80855C3E902014FF48033D4
:109CF4004FF40012C4F80433134B0121C4F8046375
:109D04001520C3F880212A46FEF740FE1520FEF7F1
:109D140021FE01230D4AA360236013600C4B0D4AFE
:109D2400009328460023CDE90155FFF73BFF304659
:109D3400FFF7BAFA284604B070BD00BF00500140D6
:109D440003000F00D880002000E100E0DC83002045
:109D5400D19A0000FFFF7F002DE9F7432E4BD3F883
:109D6400042390070BD5D3F8042142B10022C3F891
:109D740004212A4AD3F80431136801331360264AB4
:109D8400D2F80433D90326D5254BD3E8EF1F21F0AD
:109D94000100C3E8E40F002CF7D1CB0702D4D2F8BA
:109DA4004031C3B100251C4CC4F84051D4F84031B3
:109DB400FFF7D6FEEFF31182202383F31288BFF35B
:109DC4006F8F184BD3E90267B042B94106D282F3D0
:109DD4001188BFF36F8F03B0BDE8F0834FF0FF38F5
:109DE400D3E900104FF0FF391D60C3E902894FF435
:109DF4008033C4F84833C4F84051D4F8403182F376
:109E04001188BFF36F8F0029E5D0009032463B469E
:109E140028468847DFE700BF00500140E083002068
:109E2400D8830020D880002030B5431C124C85B064
:109E340005D08442A8BF0446012CB8BF0124FFF713
:109E44008FFE0E4B0C4DD3E90013401AB0F5000FF2
:109E54000FD22218AA4228BF2A46002052180849C5
:109E6400CDE90100009143F10003FFF79BFE05B02B
:109E740030BD2A46F1E700BFFFFF7F00E8800020E5
:109E8400D19A000008B5FFF76BFE024B1B68C01A9D
:109E940008BD00BFE88000200149024802F011BC5F
:109EA400699F0000E48300202C4A00F00800136F2F
:109EB400072B2BD0132B1CD0052B3AD1526D12F447
:109EC400805F14BF1723162312F4006F18BF1823E2
:109ED40012F4007F1EBF224B9B6B192312F4806F78
:109EE40018BF1A2312F4807F25D112F4005F18BF23
:109EF4001C23CA6968BBC2F3080020B96FEA522266
:109F04006FEA4222CA61184602F0E5B9D36DDA0756
:109F140013D49A0713D45A0713D41A0713D4DA069E
:109F240013D49A0613D413F0800F14BF2C232523C3
:109F3400DFE70023DDE71B23DBE72623D9E727231D
:109F4400D7E72823D5E72923D3E72A23D1E72B23EF
:109F5400CFE722F4FF7222F00102D3E7E48300206A
:109F640000ED00E000B5104B89B05A6AD86C00923D
:109F74009A6A20F005000192DA6A694602921A6B25
:109F840003925A6B04929A6B0592DA6B06921A6CDE
:109F94001B6D07929B0748BF40F00400FFF784FF46
:109FA40009B05DF804FB00BFE48300202DE9F04113
:109FB400A2B005460E461746984602F0A8FC70B9B2
:109FC400114B1B785BB14FF0FF324FF0FF330F485A
:109FD40000F02AFF044618B16FF0830510E0012455
:109FE400684602F089F9424639463046289BA8471C
:109FF4000546684602F081F914B9044800F08CFF64
:10A00400284622B0BDE8F08195840020C480002059
:10A01400002300B589B0CDE9063303AB04930423D0
:10A0240003900593A9B10B6806934B680793022329
:10A03400111E18BF01210848CDE9002140F2F53175
:10A0440004AA00F00BF80028B8BF012009B05DF89D
:10A0540004FB0123ECE700BF0501004010B4B1F597
:10A06400004F029C0ED2042B0CD8042C0AD82404D2
:10A0740044EA0364134644EA0102014610BC03485F
:10A08400FFF794BF6FF0800010BC7047217C000084
:10A0940030B50468ACB1B4FA84F30122C3F11F03F0
:10A0A400DBB29A4024EA0202D0E8EF5FA54204D171
:10A0B400C0E8EC2FBCF1000FF6D1EAD102480B70D6
:10A0C40030BD0248FCE700BF0000AD0B0200AD0B41
:10A0D40010B50368CB40DB0710D401238B40026822
:10A0E40043EA0201D0E8EF4F944204D1C0E8EC1FE8
:10A0F400BCF1000FF6D1F2D1014810BD0148FCE7D4
:10A104000000AD0B0400AD0B014BC3F80405704710
:10A11400007001400146014800F04EB9188000204B
:10A124000328F7B5064631D8384B394933F81000BF
:10A134000025C1F80803012142F21074354B364A58
:10A1440033F81630925D03F1804302F1804203F547
:10A15400A04302F5A04211601D608E421B682C4F83
:10A164008DF8071008BF0DF10705022E32D0032E1B
:10A1740040D0012E1CD0D7F8183403F480333DB9F5
:10A1840023B1012002F0E3FA013CF0D103B0F0BDA9
:10A19400D7F8182402F003022A70002BF6D09DF899
:10A1A40007000128F2D102F0D2FA013CDDD1EDE73B
:10A1B400D7F80C3403F480333DB9002BE6D00120EA
:10A1C40002F0C5FA013CF3D1E0E7D7F80C2402F021
:10A1D4000102E1E7D7F85C3403F480333DB9002B86
:10A1E400D4D0012002F0B3FA013CF3D1CEE7D7F882
:10A1F4005C24ECE7D7F85434DB03C7D5002DCED16B
:10A20400012002F0A4FA013CF4D1BFE7ECCF000036
:10A2140000500040E4CF0000A0D00000044B1A79A5
:10A2240022B9012218601A71024870470248704727
:10A23400588400200000AD0B0C00AD0B08B5094B91
:10A244001B6833B10520FEF793FB10B90520FEF718
:10A2540081FB0122044BC3F81825C3F81425C3F865
:10A26400802508BD588400200050004010B5032804
:10A2740046D8DFE800F01B02565000224FF48073EA
:10A284000121002003F1804303F5A04318601C68FA
:10A29400012402F1804202F5A0421460274A1268A8
:10A2A400002A44D0264BC3F8041329E0244BD3F8E6
:10A2B4001814D3F81824C90311D502F00303022B90
:10A2C40005D0012B02D00020FFF72AFF01231C4AEE
:10A2D4000221C2F8183508224FF48273D1E7D3F86B
:10A2E4001424D207F2D5D3F81C2402F00302013A55
:10A2F400012AE8D8114A12681AB10222C3F80423C9
:10A3040010BDD3F80421002AFBD00022C3F8042195
:10A31400D3F80431F4E718224FF490734FF48071AA
:10A32400AFE720224FF492734FF40071A9E71A6843
:10A33400002AFCD018601B68E2E700BF58840020A4
:10A3440000500040F8B50126194C1A4FD4F80453B4
:10A3540005B9F8BDB5FA85F0C0F11F00830003F517
:10A3640080739BB203F1804303F5A04306FA00F225
:10A37400196892B225EA02050029E9D00021022ACF
:10A3840019601B68C4F808230DD1D4F81834D4F824
:10A39400183403F00303012B05D1C4F81825C4F8BD
:10A3A4000423A360D4E73B68C0B29847D0E700BF5A
:10A3B40000500040588400200079024B03EB001049
:10A3C400FFF766BE20800020036803F01F025B09CC
:10A3D400026004D0012B034818BF002070470248D4
:10A3E400704700BF0028844000258440034A430985
:10A3F400D35C00F01F001844C0B27047A4D0000022
:10A4040070B50546FFF7F2FF0C4C083034F81030F5
:10A414000E46DA0508D5C3F3432304EBC3022846EA
:10A4240054F8333052689847A3682BB13146284614
:10A43400E268BDE87040184770BD00BF308000205E
:10A4440008B5FFF7D3FF034B083033F81000400B77
:10A4540008BD00BF3080002008B5FFF7C7FF034BDD
:10A46400083033F81000C0F3400008BD30800020ED
:10A4740008B5FFF7BBFF034B083033F81000C0F3F7
:10A48400401008BD30800020034611F0010010B5D3
:10A49400CCB20BD1A207C4F340000DD5074A106A11
:10A4A40058601062003818BF012005E004490A6AA8
:10A4B4001A600A62002AEDD010BD00BF0028844053
:10A4C4000025844010B5FFF791FF124A083032F896
:10A4D4001030D9051CD5C3F3432123F4F85322F8D3
:10A4E4001030002002F10E0434F8023F13F4807F90
:10A4F40003D0C3F3432399420AD001303028F3D167
:10A50400002342F831300448BDE81040FFF7E0BDB5
:10A5140010BD00BF30800020A8800020F0B50546A3
:10A5240000200126044607468C420BD1114BD3F878
:10A534007C2132B10022C3F87C21D3F87C3140F075
:10A544000040F0BDE3B29B0003F580729B0806FA5D
:10A5540003F31D420BD002F1804202F53C32D2F8E3
:10A5640000C0BCF1000F02D0176012681843013418
:10A57400DAE700BF00F00240F7B506460846FFF7E9
:10A5840035FF1A4F00F1080537F815300C46DB0784
:10A594002AD5304602F048F92046FFF769FF58B142
:10A5A4002046FFF74DFF0022316800B201EB800323
:10A5B400C3F81025C3F810252046FFF783FF0023B6
:10A5C40001A827F815300194FFF7FEFE019B00EB6C
:10A5D4008300D0F80022064B134043F00203C0F876
:10A5E4000032044803B0F0BD0348FBE7308000208C
:10A5F400F0F0FCFF0000AD0B0400AD0B2DE9F043BF
:10A604001646804685B00846FFF7F0FE0D463168D1
:10A61400044609B32846FFF71FFF18B12846FFF781
:10A6240027FF10BB00230DF10F02CDE900338DF895
:10A634000E308DF80F3028460B460DF10E0102F056
:10A644009BF8484A04F1080132F8113023F0020360
:10A6540043F0010322F8113073687BB328461F7856
:10A664005968FFF7F9FE10B1E9B13F4829E03D4AC6
:10A6740004F1080032F8103023F02003DB04DB0C73
:10A6840022F8103079B1032FEFD87168D1F804E0C3
:10A69400D8F800109EF800C001EB8C01A7B9C1F8EE
:10A6A4001075C1F810752F4A04F1080132F8113001
:10A6B40023F01C0343EA870322F81130B3683BBB41
:10A6C4002A4805B0BDE8F083D1F810E543EA4C33DD
:10A6D4002EF0030EC1F810E5D8F8001043F0200363
:10A6E40001EB8C0EDEF8101522F8103021F44F31F6
:10A6F40021F44071CEF810152902DEF8108501F41A
:10A704007C5141EA074141EA0801CEF81015CAE735
:10A714002846D3E90067FFF7D5FE002ED0D0114DAF
:10A72400D5E90023964203D19F4201D1002209E0DA
:10A734000F480DF10F01FFF7ABFC0C4B9842C0D151
:10A744009DF80F2005EBC20308345F6035F8143020
:10A7540045F8326043EA422343F4807325F8143009
:10A76400AEE700BF308000200400AD0B0000AD0B4D
:10A77400A88000202DE9F0430C46804685B0204691
:10A7840011461D46FFF732FE064629B32046FFF761
:10A7940063FE18B92046FFF76BFE18BB334F06F172
:10A7A400080937F8193013F01C0F02D04B78012B2D
:10A7B40018D001238DF80F3000234A1CCDE9001373
:10A7C40020468B1C0DF10F0101F0D6FF37F819302C
:10A7D40043F0030327F81930002D44D02046FFF737
:10A7E4003BFE18B9224805B0BDE8F083002295F875
:10A7F40000C0D8F800301D4F03EB8C03C3F81025BC
:10A80400C3F8102506F1080237F812104FEA8C0E2F
:10A8140021F02001C904C90C27F812106E7816B370
:10A82400D8F80000AD787044D0F81035360423F41D
:10A83400991323F4F853C0F81035230203F47C531E
:10A8440006F440362D05D0F810E5334305F48015A1
:10A854002B4341EA4C3143EA0E0341F02001C0F896
:10A86400103527F812100348BDE700BF30800020E0
:10A874000400AD0B0000AD0B014BC3E9021270479D
:10A884003080002010B508461446FFF7F1FD50B1A2
:10A894000846FFF7ABFD054B083033F81030044889
:10A8A4005B0B237010BD0348FCE700BF3080002021
:10A8B4000000AD0B0400AD0B70B5154D064695F8C0
:10A8C40080401CBB2146602205F1100002F0F3F821
:10A8D400214630682E6F8E420ED10023C0F87C31A1
:10A8E400D0F87C3140F30730FEF734F801230948EF
:10A8F40085F88030AB6770BDCBB29B0003F58072E6
:10A904007C2B04BF845083580131E4E70248F2E70A
:10A91400308000200000AD0B0C00AD0B034B93F80E
:10A924008000003818BF0120704700BF308000202D
:10A934000148FFF7CDBB00BFA48000200148FFF70A
:10A94400A7BB00BFA480002073B503681646D3F8E4
:10A9540004230546002AA8BF4FF000420846A8BFBA
:10A96400C3F804230C46FFF783FD00B30846FFF742
:10A9740073FD0146D8B92046FFF762FD04B2A40076
:10A984000346286804F5807281502968825821445E
:10A99400D1F8102542F00102C1F810252EB1012290
:10A9A400296802FA03F3C1F8043302B070BD2046EB
:10A9B400FFF71CFD0E4B083033F81030C3F382034D
:10A9C400042B11D0052B11D001A80194FFF7FCFC36
:10A9D400019A0369D34003F00103991C204602B095
:10A9E400BDE8704001F011BF0321F7E70221F5E74C
:10A9F400308000202DE9F04F684BDFF8A481D3F8B4
:10AA04000403D8F87010C0B289B040F00040FFF7DA
:10AA140085FD051E2FDAC24600235AF87C1F06A8BE
:10AA2400CDE90633FFF730FD4FF0000B5D4B0DF120
:10AA340018090193019A12F8013B0192DA081AF8F5
:10AA4400022003F0070322FA03F3DA071CD409F106
:10AA54000409BBF1000F14D0D8F870104FF0004077
:10AA6400FFF75CFDD8F87C1006A8FFF70DFD002861
:10AA7400DAD125F000450124002D76D109B0BDE8D6
:10AA8400F08F4FF0010BD5E7474B5B440293D9F8A5
:10AA940000100029DBD091FAA1F1B1FA81F1029BF7
:10AAA4001C7841EA44142046FFF7A0FC083038F82B
:10AAB4001070C808BB080393012319F8002001F0A3
:10AAC400070103FA01F122EA010209F8002005A8AE
:10AAD4000594FFF779FC059A039B803250F82220F5
:10AAE400C7F382065B073746C2F3014222D52046EC
:10AAF4003946D6B2FFF784FC05A80594FFF764FC39
:10AB0400059B803350F82330C3F301439E4207D1A1
:10AB14000021204601F079FE3146204601F075FE01
:10AB240005A80594FFF750FC0122059B02FA03F3E4
:10AB34000362ACE7022A0CD10321204601F065FE32
:10AB440006F00503012BEBD139462046FFF758FCEC
:10AB5400E6E702212046039201F057FE032EF3D0CC
:10AB6400039A032ADCD1022EEDE795FAA5F3B3FA92
:10AB740083F304FA03F29B0003F1804303F53C33AF
:10AB8400D3F81005D3F81015C0F30520C1F3014123
:10AB940025EA0205FFF734FC6EE700BF00F002402F
:10ABA40030800020B4D00000B4D0000038B5EFF3FA
:10ABB4001185202383F31288BFF36F8F064B9C68A3
:10ABC40001F072FE85F31188BFF36F8F2046BDE854
:10ABD4003840FDF75FBE00BF6084002038B5094BE4
:10ABE40053F82040013053F82050A54200D838BD16
:10ABF400636823B1204601F05AFE0834F5E7236860
:10AC04009847FAE7CCCF0000012270B52A4B032005
:10AC140086B01A70FFF7E2FFFDF73CFC01F063FE1B
:10AC24000420FFF7DBFF254C254D2646AE4204F1F8
:10AC3400300410D300F0CAFB204C224EAC4226D381
:10AC440000F0D8FBFDF78CFA1F4A137B23F00103B5
:10AC5400137306B070BD54F80C3C059354F8103CC3
:10AC6400049354F8143C039354F8183C029354F896
:10AC74001C3C019354F8203C009354E90A2354E902
:10AC84000C0100F0F3F954F8303C5E65CDE7D4E9EB
:10AC94000A23B3F1FF3F08BFB2F1FF3F05D052EAE8
:10ACA4000301206803D100F065FC3034C6E7314667
:10ACB400183000F0E3FDF8E7958400207CCE000016
:10ACC4007CCE0000EBC900007881002008B5034861
:10ACD400034A0021121A01F002FE08BDD8800020A8
:10ACE400988400200023012270B586B0CDE90423A6
:10ACF4000F220193CDE9023214234FF4A0720E4DBA
:10AD04000E4E03FB00550E4906EBC016044602FB2B
:10AD140000110C4B3046009500F0A8F9737B2C749D
:10AD240023F004037373084B013403EBC423EE6074
:10AD34006B6006B070BD00BF60840020F880002006
:10AD4400988C0020EDC8000098840020BFB5002036
:10AD5400FFF744FF2C4B03F5006282F3088883F36A
:10AD64000A880024E023294D294E85F82230EC7707
:10AD74002C766C76AC7685F820406B6A254F43F4CC
:10AD8400E0236B6285F82340FDF702FDFDF76EFEBC
:10AD94004FF0FF33AB62EB62FDF7F4FFFDF78AFE81
:10ADA40040F201121C4B1D4D9A81B360C3E9184453
:10ADB400DC6601F065FD0120FFF710FF0220FFF7BC
:10ADC4000DFF00F04BFB164B7561059301231549EC
:10ADD4004FF48062CDE9034328463B46CDE9014464
:10ADE400009400F043F906466A7B284622F00402E8
:10ADF4006A7301F0CCFD2046FFF774FF3A463146F2
:10AE04002846FDF713FE00BF9884002000ED00E003
:10AE1400608400200DAC0000F881002078810020BF
:10AE2400B6D00000D88D00202DE9F3410446174622
:10AE34001E46EFF31188202383F31288BFF36F8F2C
:10AE4400C368334A7BB180689168884219D057EA55
:10AE5400060318D188F31188BFF36F8F6FF00F00CA
:10AE640002B0BDE8F081916891F90E100133E360FE
:10AE740093682161A36088F31188BFF36F8F00206A
:10AE8400EEE72169F2E791F90E1090F90E306FF0B8
:10AE94007E029942A8BF19469142B8BF11468B421F
:10AEA4002DDD01F02CFD054622464146CDE9007614
:10AEB400184800F0EBF90028E1D0EFF311862023C5
:10AEC40083F31288BFF36F8FA068D0B12368216920
:10AED4009C420AD04BB193F90E309942A8BF19464F
:10AEE4006FF07E039942B8BF194601F008FD40B1E6
:10AEF4003146084800F044FA6FF00A00B0E7002534
:10AF0400D2E7002DF4D186F31188BFF36F8FF3E7F6
:10AF14006084002096840020F8B583680546002BE1
:10AF24003FD0234A926893423ED1C368012B03D990
:10AF3400013BC3600020F8BDEFF31187202383F3A6
:10AF44001288BFF36F8F0169806801F0D8FC2C6808
:10AF5400A54207D10023C5E9023387F31188BFF363
:10AF64006F8FE7E7002CF5D0D4E900320026136098
:10AF74005A60637BC4E9006623F002036373A6602E
:10AF840004F1180001F065FDAC6094F90E30204620
:10AF94002B61A66701F0FBFC3946064800F0F0F986
:10AFA400C8E76FF01500C6E74FF0FF30C3E700BFF6
:10AFB400608400209684002070B5EFF3118620236E
:10AFC40083F31288BFF36F8F0468A0421AD0CCB108
:10AFD400D4E90032002513605A60637BC4E900554C
:10AFE40023F002036373A56004F1180001F031FD3E
:10AFF4002046A56701F0CBFC3146BDE87040074808
:10B0040000F0BEB9D0E902329A4218BF013383601E
:10B0140086F31188BFF36F8F70BD00BF9684002044
:10B0240013B5EFF31181202484F31288BFF36F8FDB
:10B03400846844B1013C846081F31188BFF36F8F4D
:10B04400002002B010BD52EA030406D181F3118836
:10B05400BFF36F8F6FF00F00F3E7CDE900230246D3
:10B06400014800F013F9ECE7968400202DE9F04341
:10B07400984685B000F15803C0E91633109B0026AA
:10B0840003730423073222F0070543730F9B01EB7C
:10B0940005090F4683734946C0E906668660C67390
:10B0A4000446FDF709FA0E9B073020F00700A0665E
:10B0B400C4E9187502930D9BA9EB000901930C9B3D
:10B0C4004A460093394643462046FDF791FC054B1A
:10B0D40066659B6803B1DB6E4846E36605B0BDE870
:10B0E400F08300BF608400206FF00A01084A93686F
:10B0F4009967084958674B6843F080534B600023B5
:10B1040083F31188BFF36F8F9368986F704700BF04
:10B114006084002000ED00E070B590F90D20437BC1
:10B12400002A39DBD90637D18269002A34D11D4C73
:10B1340063F07F032246437352F8183F93422CD1A5
:10B14400E169C0E900210860E06111E09942F8D0AA
:10B154001B68002BF5D090F90E5093F90E60B542A0
:10B16400F4D0AE42F2DD5968C0E90031086058609D
:10B17400A569954200D005B9E568A3685A7BD20653
:10B1840004D1DA897F2A01D9AA6942B1AB4202D03B
:10B19400284600F0D1FA656170BDE169D9E76361C1
:10B1A400FAE700BF6084002038B590F90D2001460D
:10B1B400002A437B04DA03F07F03437301F0ADFB01
:10B1C4000D4D2A4652F8184FAB68944200D004B98A
:10B1D400EC688B4207D05A7BD20604D1DA897F2AE5
:10B1E40001D9A2692AB1A34202D0204600F0A4FAF0
:10B1F40023466B6138BD00BF6084002070B590F9B0
:10B204000D200146002A437B04DA03F07F034373D5
:10B2140001F083FB1C4C4B7B224663F07F034B7392
:10B2240052F8183FE069934207D1C1E90020016058
:10B23400E16111E09842F8D01B68002BF5D091F938
:10B244000E5093F90E60B542F4D0AE42F2DD586868
:10B25400C1E9003001605960A569A368954200D036
:10B2640005B9E5688B4207D05A7BD20604D1DA8946
:10B274007F2A01D9AA692AB1AB4202D0284600F03C
:10B284005BFA2B46636170BD60840020F8B5124BF5
:10B294000C46DDE9067611469868104A1060EFF313
:10B2A4001182202282F31288BFF36F8F9D68284693
:10B2B40001F045FBB6F1FF3F08BFB7F1FF3F06D0F1
:10B2C4003A463346064905F1180000F0D7FA2046FD
:10B2D400BDE8F840FFF708BF6084002080840020A8
:10B2E400EBC90000F8B50446EFF31186202383F37D
:10B2F4001288BFF36F8F437B49B2DA0617D1826994
:10B30400AAB903F07F031D4D437301F006FB2A46DF
:10B31400437B817363F07F03437352F8183F934276
:10B324002AD1E869C4E900200460EC6116E0002039
:10B33400A17386F31188BFF36F8FF8BD8342F1D0F8
:10B344001B68002BEED093F90E70B942F6D08F42F1
:10B35400F4DD5968C4E900310C605C60AC69944266
:10B3640000D004B9EC68AB689C4202D0204600F0DF
:10B37400E3F901206C61DCE7E869E2E7608400201E
:10B3840049B9EFF3058030B9054B5A699B689A4275
:10B3940001D0FFF7A9BE81F31188BFF36F8F704707
:10B3A40060840020034648B9EFF3058232B9064AA7
:10B3B40051699268914201D0FFF796BE83F31188D8
:10B3C400BFF36F8F704700BF60840020EFF31181DB
:10B3D400202383F31288BFF36F8F054B9A68D37BC6
:10B3E400013BD37381F31188BFF36F8F704700BFA4
:10B3F4006084002070B5EFF31186202383F3128854
:10B40400BFF36F8F144DAB68DA7B0132DA732A46CF
:10B4140052F8184F944200D004B9EC685A7BD20613
:10B4240004D1DA897F2A01D9A2692AB1A34202D0C0
:10B43400204600F081F923466B6186F31188BFF33F
:10B444006F8FEFF31180202383F31288BFF36F8F84
:10B45400BDE87040FFF7A6BF60840020024B03F1F3
:10B464001802C3E9062270476084002070B5EFF328
:10B474001186202383F31288BFF36F8F1B4CA168BE
:10B48400E0690B68814214BF1A46002249680B60C8
:10B494005960A368E1692AB9154AC3E900210B6020
:10B4A400E3610CE093F90E0092F90E50A84218D013
:10B4B400854216DD5168C3E900210B605360A5691C
:10B4C4000B4B9D4200D005B9E568A3689D4202D0AC
:10B4D400284600F031F965613046BDE87040FFF759
:10B4E40003BE8A42D8D01268D5E700BF608400202A
:10B4F4007884002050EA01032DE9F04105460E4608
:10B5040004D1FFF7B3FF0020BDE8F081831C71F183
:10B51400FF3324DB01F0BEFA4419EFF31188202332
:10B5240083F31288BFF36F8F0F4F104BB868186006
:10B53400FFF73AFEB8680E492A463346183000F041
:10B544009DF9BA684046537B43F004035373FFF7F5
:10B55400CBFD01F09FFA201A20EAE070D4E76FF0E7
:10B564000104241AD9E700BF6084002080840020ED
:10B57400EBC9000038B50446183001F06AFAEFF35D
:10B584001185202383F31288BFF36F8F637B5A07DF
:10B5940004D485F31188BFF36F8F38BD23F00403FF
:10B5A40020466373FFF7B8FDEFF30583002BF0D15A
:10B5B4002946BDE838400148FFF7E2BE96840020E2
:10B5C400014B9868704700BF608400202DE9F84360
:10B5D4000446EFF31187202383F31288BFF36F8FA0
:10B5E400067B16F001060DD087F31188BFF36F8F29
:10B5F400002383F31188BFF36F8F0423184602DFFF
:10B60400BDE8F883437B1A0704D587F31188BFF399
:10B614006F8FF5E7D90943F0080250D14273A3684C
:10B6240013B1204601F081F904F1180001F011FA78
:10B63400A56D04F15808A84511D04FF0000975B163
:10B64400284601F072F905F1180001F002FA2846C3
:10B65400C5F87890FFF760FDA56DA845EFD11C4DA6
:10B66400AB689C4204D1EFF30586003E18BF012667
:10B67400D5F81880174A904502D0B8F1000F01D1CF
:10B68400D5F80C80434502D0404600F055F8C5F883
:10B69400148046B140F201120F4B9A810022C3E993
:10B6A4001822DA66AB60AB689C42AED1EFF3058337
:10B6B400002BAAD13846BDE8F843FFF715BD03F0C7
:10B6C4007F0343F00803437301F027F9A7E700BFA2
:10B6D4006084002078840020F88100200122044B3B
:10B6E400C01A044BC0105843034B1A54704700BF90
:10B6F40078820020ABAAAAAA96840020C3897F2B53
:10B7040012D80A4B1B6863B1094B90F90E201B68D1
:10B714009A4209DB437BDB0606D1064BC31A18BFEA
:10B72400012303F0010070470023FAE78884002016
:10B7340084840020F880002070B50E4B0E4C1E7CD3
:10B74400054606EB460304EBC304204601F081F9E9
:10B7540000220A4B28469A55FFF7D0FF48B1084B00
:10B764002046BDE870401A680649013AD31700F034
:10B7740085B870BD60840020788200209684002003
:10B7840088840020E1B6000038B5EFF3118520234A
:10B7940083F31288BFF36F8F104B114A9C681068B3
:10B7A400A04206D1FFF7C8FF85F31188BFF36F8F5E
:10B7B40038BD00211B7C11600A4AD35C002BF3D0F6
:10B7C4002046FFF79BFF0028EED0637BDB0602D107
:10B7D4002046FFF713FD2046E4E700BF6084002005
:10B7E4008084002096840020074808B5074A084949
:10B7F400121A01F076F8BDE808400648064A0749DF
:10B80400121A01F06EB800BF00800020D88000201A
:10B81400CCD000000080002000800020CCD00000AC
:10B82400024B1868984208BF00207047B48000207B
:10B83400034B1B680BB9FEF725BB0020704700BF04
:10B844008C84002030B570B10B4B5B6898420AD0F1
:10B85400036843B1D3E90421D0E90445121941EB4B
:10B864000501C3E90421D0E9003213605A600023C2
:10B87400C0E9003330BD00BFB4800020B3F1FF3F06
:10B8840008BFB2F1FF3FF8B504461D4616465AD02C
:10B894008160EFF31187202383F31288BFF36F8F46
:10B8A400013275F1FF3321DA6FF001032B49D1E93D
:10B8B40000209B1A4FF0FF3262EB00009E1B60EBEE
:10B8C4000500012E70F1000301DA01260020C4E90D
:10B8D4000460FFF7A5FF224E84467068BCF1000F98
:10B8E4000DD1C4E90060046074601CE0FFF7A0FFA0
:10B8F400013645F10005361845EBE070E7E7DCE971
:10B904000425D4E90431934271EB050E1CDAD21AF2
:10B91400DCF8043065EB0105CCE90425C4E900C377
:10B924001C60CCF80440FFF77BFF844207D10D4B29
:10B934001C6824B901F074F82146FEF775FA87F300
:10B944001188BFF36F8FF8BD9B1A61EB0501844525
:10B95400C4E90431C5D0DCF800C0BFE79082002000
:10B96400B48000208C8400202DE9F047EFF311858A
:10B97400202383F31288BFF36F8FDFF8A090002693
:10B98400C9F800000027FFF74BFFDFF89480D9F8CF
:10B994000030D8E900ECD91750B1D0E90442A342F1
:10B9A40071EB020A1ADAE41A62EB0102C0E90442FA
:10B9B400002413EB0E034CEB0101C8E90031C9F874
:10B9C400004001F02DF82146FEF72EFA85F3118888
:10B9D400BFF36F8FBDE8F047FFF7D6BE14EB0E023E
:10B9E4004CEBE473C0E90467C8E90023FFF72AFFBE
:10B9F40085F31188BFF36F8F83689847EFF3118540
:10BA0400202383F31288BFF36F8FD9F800301B1BF8
:10BA1400C9F80030FFF704FFB9E700BF8C840020A9
:10BA24009082002010B5EFF31184202383F3128851
:10BA3400BFF36F8FFFF7FCFE0346054AD2E900010E
:10BA4400181841EBE37184F31188BFF36F8F10BDB5
:10BA5400908200202DE9F04F43688DB01546804652
:10BA6400029383789A0740F10D8100240E78002E0A
:10BA740000F00A81252E0BD04B1C03930134414660
:10BA84003046029B98470028C0F2F6800399EDE700
:10BA94004E788B1C252E0393F0D00027B946BB4665
:10BAA400BBF11F0F38D8A6F12003102B0AD8DFE80A
:10BAB40003F02A0909300909092109090928092D6E
:10BAC40009091F00A6F13003092B33D92A2E37D1D7
:10BAD4001BF0400F55F8043B40F08280002BA7BFB9
:10BAE4004BF0200B9946C3F100094BF0280B01E001
:10BAF4004BF0010B039B13F8016B0393002ECFD182
:10BB040030E04BF0020B4BF0040BF3E74BF0080B67
:10BB1400F0E74BF0100BEDE7BBF17F0F19D8A6F15E
:10BB24003003092BD2D81BF0400F03D00A2101FBAC
:10BB34000737DFE70A214BF0200B01FB0939D9E76E
:10BB44002E2E06D11BF0400F40F09E804BF0400B90
:10BB5400D0E76C2E31D02BD8682E36D06A2E3CD04C
:10BB64004C2E3AD0002F46F02003B8BF2BF04002F1
:10BB7400A3F16501BCBF00271FFA82FB022901D98A
:10BB8400612B2FD107350727DFF8ACA225F0070575
:10BB940008351BF0080F66D00AEB070B56465E45C6
:10BBA40063D1A4EB0A0AA9EB070906EB0A026FE1C9
:10BBB400742E9FD07A2E9DD0D4E71BF0800F18BF2F
:10BBC4004BF4007B4BF0800B94E71BF4807F18BF91
:10BBD4004BF4007B4BF4807B8CE74BF4207B89E7B0
:10BBE4001F4687E7A6F16301122900F2F080DFE81F
:10BBF40011F013004F00EE00EE00EE00EE004F00D7
:10BC0400EE00EE00EE00EE00EE00FE00E900EE00B5
:10BC1400EE001B00EE00AF0055F8043B01270DF1C8
:10BC2400180A8DF81830B4E755F804AB834BBAF111
:10BC3400000F08BF9A461BF0400F504614BF394608
:10BC44004FF0FF3100F03FFF0746A2E741462020B6
:10BC5400029B984700280FDB013EB742F6D34C44C1
:10BC6400B146A41B98E74E46F7E7414616F8010B88
:10BC7400029B9847002892DA98F8023043F00403B4
:10BC840088F802304FF0FF3420460DB0BDE8F08F45
:10BC94001BF0800F34D01BF4007F2CD0073525F027
:10BCA4000705AA4669685AF8080B2BF01005002905
:10BCB400ADB237DA404245F4806561EB41010DF1E4
:10BCC400180B0A235A4600F00AFFA0EB0B0301935A
:10BCD4006B0662D5019B25F001019F4289B240F3B6
:10BCE400A180002E00F0998015F0100240F09C8095
:10BCF400BB460D4623E0AA465AF8040BC117D4E705
:10BD0400AA461BF4807F5AF8041B01D10846F5E7C4
:10BD14001BF4007F19BF48B241F3C01108B241F3CC
:10BD2400C031C2E750EA0103C9D11BF0400FC6D0AD
:10BD3400002FC4D12BF01102BB46019795B240F2FB
:10BD4400064115EA01021CBF0BF1010B00222CE095
:10BD54002BF010020A231FFA82FB1BF0800C49D03F
:10BD64001BF4007115BF0735AA4625F007055AF8DC
:10BD7400040B1EBFAA4669685AF8080B50EA01056D
:10BD840045D12BF016051BF0400FADB242D0002F69
:10BD940040D12BF01702019795B215F0100248D04C
:10BDA400019B002E42D103F1010B29075AD4EB0762
:10BDB40006D5D9456FDDA9EB0B030199CB465F1876
:10BDC4005B4649E04BF0100B10237826C5E7782B2F
:10BDD40004D1C6F1780343F01003BEE741462520A1
:10BDE400029B98470028FFF647AF023447E6082332
:10BDF4000026B2E7AA461BF480715AF8040BBDD0A2
:10BE04001BF400711ABFC0B2614680B2B6E72BF0D2
:10BE1400060295B20DF1180B54E725F01105BB4647
:10BE2400ADB28CE70D46B8E73B460D4603F1020B75
:10BE3400BBE7DDF804B082E7C2D00000BBD000004D
:10BE4400CDE9043241462020029B98470028FFF6A2
:10BE540013AF049B059A01339945F1DCA4EB0B0164
:10BE64009B46CC180AB341463020029B98470028D1
:10BE7400FFF602AF8EB901342744391B019B994266
:10BE840024DC1D4655BB019AA9EB0B0955462244F7
:10BE94001446914433E0019F92E702344146304610
:10BEA400029B98470028E7DAE6E640F206410D4295
:10BEB400E2D015F0020F04F10104414614BF2B2017
:10BEC400202015F4806F18BF2D20E9E7414630206B
:10BED400029B013498470028CFDACDE606AB013D3A
:10BEE4004146585D029B98470028CBDAC4E6414698
:10BEF4002020029B013498470028FFF6BDAEA9EB31
:10BF04000403002BF3DCC1E5704703460A46F0B492
:10BF14001979DB8800681343DC028768066906D553
:10BF240013F4402F03D0DA0748BF83F440230125DC
:10BF340034688D4023F48012DB074CBF2C43AC43A0
:10BF440034603B68F0BC1847836800EBC101B3F56B
:10BF5400004F2CBF51F8220031F81200704700EB5B
:10BF6400C1018068B0F5004F2CBF41F8223021F8A0
:10BF740012307047012208B5FFF7E6FFD04008BD34
:10BF8400836800EBC101B3F5004F08D34B681AB1C5
:10BF940043F001034B60704723F00103FAE74B8839
:10BFA4001AB143F001034B80704723F00103FAE711
:10BFB40053000122FFF7D3BFB0F5004F34BF042371
:10BFC4000823481C0833A0EBD300B0FA80F0C0F17A
:10BFD4001F0070472DE9F0410D4686680446FFF7BF
:10BFE400C9FFB6F5004F014601D3012832D03046CF
:10BFF400FFF7E2FF04EB80010E6996B90122E368C2
:10C0040082401343E36002220D612B4629462046F9
:10C01400FFF7A5FF032229462046BDE8F041FFF7BC
:10C024009EBF022231462046FFF78EFF0746034695
:10C0340029462046FFF793FF03223346294620462C
:10C04400FFF78DFF39462B462046FFF788FF022273
:10C054003146E1E7BDE8F081B2F5802F2CBF08231B
:10C0640004232DE9F0410026D21A8C18CD1D25F0A9
:10C07400070524F00704641BE408056021462046F4
:10C08400AC60EE60FFF798FF421D9200013002F1B0
:10C0940007074FEAD7073146A2F1100205F1100055
:10C0A400B8BF324600F007FD3A4631462846FFF74E
:10C0B4007FFF3346324631462846FFF750FFA4EB54
:10C0C4000708284631460122FFF75AFF42463946FF
:10C0D400FFF76EFF3B46324639462846FFF73FFFDF
:10C0E40021462846FFF764FF434632462146284648
:10C0F400FFF735FF214628460122FFF741FF394665
:10C10400BDE8F041FFF766BF002070470FB407B5E4
:10C1140004A951F8040B0191FCF776F803B05DF81B
:10C1240004EB04B07047038B13F0070305D10368D5
:10C13400002B0CBF002003207047022B05D1408B3D
:10C14400B0FA80F0400980007047012B05D10368E4
:10C15400002B0CBF0020052070470020704710B54D
:10C164000C4600B111B96FF0150010BD081D00F0A8
:10C1740093F80028F9D1A368032BF6D9F3E72DE946
:10C18400F0410D4607461946281D90461E4600F00C
:10C1940094F8044638B13346424629463846A44604
:10C1A400BDE8F0416047BDE8F08110B4EFF31182BF
:10C1B400202484F31288BFF36F8F416110BC0121E6
:10C1C400FCF754B838B50C46054658B151B10B6864
:10C1D40043B14B6833B11C22002100F06CFC0020F9
:10C1E4002C6138BD6FF01500FBE770B505460E46AF
:10C1F400FFF7B5FF041E14DBEFF31182202383F352
:10C204001288BFF36F8F4FF6FF716B8B2C8B8B42B1
:10C2140004F0070407D182F31188BFF36F8F6FF026
:10C224000A04204670BD022C0CD101336B8382F3C7
:10C234001188BFF36F8F0023224631462846FFF74B
:10C244009EFFEEE7062C14D8DFE804F00413131362
:10C25400041A0400002333606B683BB9C5E9006627
:10C26400ACB902212846FCF701F8DAE71E606E60DB
:10C27400F6E782F31188BFF36F8F6FF00404D0E701
:10C2840082F31188BFF36F8F6FF08504C9E782F3DF
:10C294001188BFF36F8FC4E7034658B1426802F0B8
:10C2A4000302012A03D0032A04D1026812B1002038
:10C2B400986070476FF0150070474268034602F0BB
:10C2C4000302032A4FF00002816014BF1046006885
:10C2D4005A6070477047012801D1EFF30583FEF7D8
:10C2E40065BC01460068FFF7F6BF08B5FCF7E0F847
:10C2F400BDE80840FCF700B97047704700210120F1
:10C30400FFF7E9BF036E83F30B88704761B662B62B
:10C3140080F31188BFF36F8F704708B572B600239E
:10C3240083F31188BFF36F8FFCF710FE50B1BFF396
:10C334004F8F30BF00BF00BF00BF00BF00BF00BFB2
:10C3440000BF00BF62B6BFF36F8F08BD10B50446CF
:10C3540072B6002383F31188BFF36F8FFCF7F6FDE9
:10C3640050B1BFF34F8F20BF00BF00BF00BF00BF5D
:10C3740000BF00BF00BF00BF84F31188BFF36F8FFD
:10C3840062B610BD40E800F313F4803FD8B208BF92
:10C394006FF01500704730B50C684B6885B00A899A
:10C3A4004D890094013B24F01F04234402F01F0232
:10C3B40042EA451223F01F0369468DF808200393CF
:10C3C400FCF7AEFB05B030BD08B5FCF769FD0020F5
:10C3D40008BD10B54FF04023012402222146C3F8C2
:10C3E400D0262120C3F80447C3F80449C3F8004BFE
:10C3F40000F00EF82146202000F00AF821462520FE
:10C4040000F006F82146242000F002F8002010BDB8
:10C4140007B501AA00F080F903B05DF804FB0C2213
:10C424000369C9B201FB0233986F00F0070070473B
:10C4340070B5C9B20369EFF31185202484F312881F
:10C44400BFF36F8F0C2606FB0134A46F14F0C004F5
:10C4540008D0A24206D085F31188BFF36F8F4FF046
:10C46400FF3070BD012206FB01339A6785F3118802
:10C47400BFF36F8F436803EBC1035B6898470020E9
:10C48400EFE78022FFF7D4BFF8B5069F0469C9B26D
:10C49400EFF31186202585F31288BFF36F8F0C25E7
:10C4A40005FB0144A56F05F0070CBCF1010F0CD18D
:10C4B400A76786F31188BFF36F8FC4E91C23436811
:10C4C40053F8313098470020F8BD05F0C005AF425D
:10C4D40086F31188BFF36F8F0CBF6FF077004FF0B6
:10C4E400FF30F1E713B580240094FFF7CDFF02B0CD
:10C4F40010BD10B41C240069CBB203FB040000215E
:10C5040010BC10470320FDF7B1BE0220FDF7AEBEFC
:10C514000020FDF7ABBE032000F02CB9022000F090
:10C5240029B9002000F026B91046FEF745BD43683E
:10C5340000205B681B690B607047436802EA0100D6
:10C544005B6821EA020198600020D9607047436863
:10C5540000205B6899607047436800205B68D9607D
:10C56400704743685A68536821EA03000B4090609F
:10C574000020D360704710B503695868F8B1884249
:10C5840019D19C680868A142586000D198600020C5
:10C5940008602AB15A680A609A68596002B99960B9
:10C5A400002010E0814206D108682060986881422A
:10C5B400EDD19C60EBE7044600680028F2D1002A24
:10C5C400E8D16FF0150010BD30B543681360057AEB
:10C5D400446804EBC504A34202D36FF0010030BDEC
:10C5E4005C798C4201D00833F0E70020F7E7436818
:10C5F4001B68D3F88004C3F880047047426813684A
:10C60400D3F8100150B10020126A12780A70C3F8EE
:10C614001001D3F8102101221A6070474FF0FF3047
:10C62400704702680346D2F8580140B95B68DB07DB
:10C6340006D4D2F82001003818BF01207047012029
:10C64400704743681B68D3F80423D20517D5D3F881
:10C654002021A2B1EFF31182202181F31288BFF3CC
:10C664006F8FD3F8201131B10021C3F82011D3F812
:10C6740020110121D96082F31188BFF36F8FD3F8A1
:10C6840058317047002200F150039B009BB203F124
:10C69400804303F5A8331A601B68704708B5FDF79B
:10C6A4005FFA08BD08B500F035F848B1002383F3FC
:10C6B4001188BFF36F8F0423184602DF6FF0040064
:10C6C40008BD00B589B006AB02930823039301AB00
:10C6D400049304230791CDE9053004AA184602A95E
:10C6E400FDF796FC0228019B09D003280AD060B903
:10C6F400181E18BF0120404209B05DF804FB6FF01A
:10C704001500F9E76FF08500F6E74FF0FF30F3E727
:10C714000020704700207047002310B588B0CDE991
:10C72400053005AB01930C230293042314460791AF
:10C7340003AA0DEB030102200493CDF80CD0FDF7FE
:10C7440067FC009B236008B010BD7047004700F0F1
:10C7540093B840F00040C1F88000704740F00040BA
:10C76400C1F88000704740F00040C1F88000C2F872
:10C7740080007047FDF7D4BCF7B51646DDE90847DD
:10C78400019001A81D46FDF71FFE019BB6F1000CA8
:10C7940018BF4FF0010C00EB83000B1E18BF0123E0
:10C7A400002D43EA4C0314BF4FF00C0C4FF0000C67
:10C7B400002C43EA0C0314BF4FF4706C4FF0000CD0
:10C7C400002F43EA0C0314BF4FF4403C4FF0000C1D
:10C7D400D0F8002243EA0C0322EA030301B10978EA
:10C7E4000EB13678760019430DB12D78AD00314382
:10C7F4000CB12478240229430FB13F783F040C4341
:10C804003C43C0F8004203B0F0BD1FB50DF10F0367
:10C81400019300238DF80F101A4619460093FFF771
:10C82400ABFF05B05DF804FB38B5054608460C4679
:10C83400FDF71EFEB0B10846FDF70EFE90B908469E
:10C84400FDF7FEFD01232A688340C2F808332A68F5
:10C8540003B202EB8303D3F8102522F00302C3F8DA
:10C86400102538BD2046BDE838400021FFF7CDBF74
:10C87400FDF782BEFFF7D8BF08B1FCF79BBB70473A
:10C88400704740B1C368587810F001001EBF187893
:10C89400B0FA80F040097047EFF31183202383F34B
:10C8A4001288BFF36F8FFEE708B5FFF7F5FF10B5E9
:10C8B400D0E9003433B90020E268537843F001032F
:10C8C400537010BD204698470028F4D00028B8BF04
:10C8D4004042FF28A8BFFF20E3681870ECE700F08F
:10C8E400EAB800F0DBB87047202408B5EFF31183F1
:10C8F40084F31288BFF36F8FFFF70FFDF6E790F90B
:10C904000E308B4201D0FEF7EDBC00207047EFF3F0
:10C914000580003818BF01207047D0E90032136049
:10C924005A600023C0E90033704708B5FFF7F5FFEC
:10C93400437B23F0020343730023836008BD38B5AF
:10C9440004460D46FEF730FC637B43F00203637339
:10C95400E5B1A5602B689D4209D16B68C4E9005319
:10C964001C606C6012E06A689A42F6D01B68002B67
:10C97400F3D094F90E2093F90E108A42F3D0914229
:10C98400F1DD5A68C4E9003214605C6038BD10B54A
:10C99400EFF31184202383F31288BFF36F8FFEF724
:10C9A400BBFB84F31188BFF36F8F10BD014610B534
:10C9B400EFF31184202383F31288BFF36F8F437B3B
:10C9C40013F0280F0AD183680BB1FFF7AEFF4B7B3E
:10C9D400084623F004034B73FEF79EFB84F311888F
:10C9E400BFF36F8F10BD01211838FFF7DFBF38B5D3
:10C9F4000C460546FEF77EFDB4F1FF3F08BFB5F1D6
:10CA0400FF3F1FBF47F6FF7300224FF47A71C0FB4C
:10CA1400013216BFD80B4FF0FF3040EA424038BD18
:10CA240010B5FEF7FDFE0446FEF702FF74B1D4E92B
:10CA340004321B1A62EBE072B3F1004F72F1000191
:10CA440004DA002AACBF1846002010BD6FF0004085
:10CA5400FBE7024638B5EFF31185202383F31288F0
:10CA6400BFF36F8F036893B1FEF7DAFE04461046F6
:10CA7400FEF7E8FE844204D1FFF7D2FF0021FDF760
:10CA8400D3F9002085F31188BFF36F8F38BD6FF0A1
:10CA94001500F7E708B5FEF7C5FF08BD0A44431EB5
:10CAA400914200D1704710B511F8014B914203F83F
:10CAB400014FF9D110BD02440346934200D170479F
:10CAC40003F8011BF9E70246014410B58A421346F4
:10CAD40003D01C780132002CF8D1181A10BDF0B51F
:10CAE400C3F13707044603F01F031046FFB2082BB7
:10CAF400E6B232D0102B3DD06508A40845EAC175D2
:10CB040044EA81748A082D1942EB5102290941EA49
:10CB140002716D1842EB1212290A41EA02616D1882
:10CB240042EB1222290C41EA02416D1842EB1242F7
:10CB3400AD1842F10002EC0844EA4274D10804EB57
:10CB44008402A6EB4205EDB2092D0CD90134A5F1FE
:10CB54000A0541F10001EDB212E0E40806F0070510
:10CB640044EA4174C908303554EA010200F8015B13
:10CB7400BDD1F0BD240906F00F0544EA017409098A
:10CB8400092D84BFED19EDB2EDE7000001480068FE
:08CB940070470000A48200209C
:10CB9C00D7C3000000000000F18F0000000000006F
:10CBAC009D9E0000000000001991000004CC0000C4
:10CBBC00F19400002CCC0000F194000018CC000083
:10CBCC008599000040CC0000A193000000000000FB
:10CBDC00CD9C000000000000F18E00000000000061
:10CBEC00CD8E00000000000015C700000000000002
:08CBFC00A9C6000000000000C2
:10CC04006AD0000034CF0000A0CE0000BC80002019
:10CC14001083002075D0000054CF00007CCE0000AB
:10CC2400BE800020B483002081D000006CCF0000BF
:10CC34007CCE0000C0800020C083002096D000007D
:10CC440084CF0000BCCE0000C2800020CC83002032
:10CC54000000000001C300000000000001C3000048
:10CC64000000000001C300000000000001C3000038
:10CC74000000000001C3000049A3000051C70000E8
:10CC84000000000001C300000000000001C3000018
:10CC940040CC000047C600000000000001C30000B3
:10CCA4000000000001C300000000000001C30000F8
:10CCB4000000000001C300000000000001C30000E8
:10CCC4000000000001C300000000000001C30000D8
:10CCD4000000000001C300000000000001C30000C8
:10CCE4000000000001C300000000000001C30000B8
:10CCF4000000000001C30000000000005D9D000072
:10CD04000000000001C300000000000001C3000097
:10CD14000000000001C300000000000001C3000087
:10CD24000000000001C300000000000001C3000077
:10CD34000000000001C300000000000001C3000067
:10CD44000000000001C300000000000001C3000057
:10CD54000000000001C300000000000001C3000047
:10CD64000000000001C300000000000001C3000037
:10CD74000000000001C300000000000001C3000027
:10CD84000000000001C300000000000001C3000017
:10CD94000000000001C300000000000001C3000007
:10CDA4000000000001C300000000000001C30000F7
:10CDB4000000000001C300000000000001C30000E7
:10CDC4000000000001C30000F9A9000051C70000E1
:10CDD4000000000001C300000000000001C30000C7
:10CDE4000000000001C300000000000001C30000B7
:10CDF4000000000001C300000000000001C30000A7
:10CE04000000000001C300000000000001C3000096
:10CE14000000000001C300000000000001C3000086
:10CE24000000000001C300000000000001C3000076
:10CE34000000000001C300000000000001C3000066
:10CE44000000000001C300000000000001C3000056
:10CE54000000000001C300000000000001C3000046
:10CE64000000000001C300000000000001C3000036
:08CE74000000000001C30000F2
:10CE7C008595000033C500003FC5000053C5000078
:10CE8C005DC5000067C50000F19300007BC5000084
:04CE9C000000000092
:10CEA0007D91000087C40000E9C40000000000007C
:0CCEB00023C4000000000000000000008F
:0CCEBC0001C60000D1980000F3C5000082
:10CED0000338FDD87047000018CC000006000000A1
:10CEE00018CC0000080011000080002000000000A5
:10CEF0000600010002000000FCCE0000000000005F
:10CF000057D0000006000000E0FF0F000080002066
:10CF10005FD0000021000000E0FF0620019000002B
:10CF2000DD8F000000000000A19000007190000063
:10CF300000000000FD910000E590000015C5000014
:10CF400027C500000FC5000021C5000009C500006D
:10CF50001BC50000FFFF0000002884400000000007
:10CF60000100000000F0024000000000FFFFFFFF92
:10CF700000258440000000000000000000F0024096
:10CF800000000000008000400100000000000000E0
:10CF9000A8CF00000000D601000000000000000043
:10CFA000948400209384002000800040B4CF0000CF
:10CFB00001000000BCCF00000400000014000000CD
:10CFC0001300000216060001150600039CCB0000AA
:10CFD0009CCB0000DCCB0000E4CB000004CC0000C4
:10CFE00004CC000004010001240120010200010022
:10CFF000000200012A2A2A20426F6F74696E67209E
:10D000006E524620436F6E6E6563742053444B200E
:10D0100076332E302E322D38396261313239346117
:10D02000633962202A2A2A0A002A2A2A205573698B
:10D030006E67205A6570687972204F532076342EBF
:10D04000302E39392D663739316334396634393207
:10D0500063202A2A2A0A00464C4153485F30005375
:10D0600052414D5F300000000001636C6F636B4004
:10D0700035303030006770696F40383432383030C6
:10D08000006770696F40383432353030000001027B
:10D0900003040506070B75617274403830303000A8
:10D0A0000C04241C00203030303030303030303030
:10D0B0003030303000016D61696E00286E756C6C27
:0CD0C00029002A666C6F61742A000000D1
:10D0CC000DC1000000000000CDC3000000000000F6
:10D0DC00000000000090D003007001400000000030
:10D0EC00FFFFFFFF3F000000FFFFFFFF3F000000BE
:10D0FC000000000000000000000000000000000024
:10D10C000000000000000000000000000000000013
:10D11C000000000000000000000000000000000003
:10D12C0000000000000000000000000000000000F3
:10D13C0000000000000000000000000000000000E3
:10D14C0000000000000000000000000000000000D3
:10D15C0000000000000000000000000000000000C3
:10D16C0008000000FF0000000000000003000000A9
:0CD17C0000000000B4800020B4800020FF
:08D1880000000000000000009F
:10D19000C4800020C48000200000000000000000C7
:04D1A0000E0000007D
:04D1A40015E015E09D
:04000003000087C9A9
:00000001FF
